{
  "transactions": [
    {
      "hash": "0x59eec1933d843d77e526291cb55739ca1aa2cfebd1ff49d8e6775b397e441f83",
      "transactionType": "CALL",
      "contractName": null,
      "contractAddress": "0xdc8530184b633dca44a0e8c48c394fb670ac921f",
      "function": "sendDeposit(address,uint64,uint256)",
      "arguments": [
        "0xDC5C24Ff3c0B474BB915133D18Cb5506d55554B6",
        "16015286601757825753",
        "50000000"
      ],
      "transaction": {
        "from": "0x40b282c45ee5667fb72b4d37a676a0110cee36d5",
        "to": "0xdc8530184b633dca44a0e8c48c394fb670ac921f",
        "gas": "0x3a9b8",
        "value": "0x0",
        "input": "0xba4f9798000000000000000000000000dc5c24ff3c0b474bb915133d18cb5506d55554b6000000000000000000000000000000000000000000000000de41ba4fc9d91ad90000000000000000000000000000000000000000000000000000000002faf080",
        "nonce": "0x3",
        "chainId": "0x66eee"
      },
      "additionalContracts": [],
      "isFixedGasLimit": false
    }
  ],
  "receipts": [
    {
      "type": "0x2",
      "status": "0x1",
      "cumulativeGasUsed": "0x269b2",
      "logs": [
        {
          "address": "0xb1d4538b4571d411f07960ef2838ce337fe1e80e",
          "topics": [
            "0x8c5be1e5ebec7d5bd14f71427d1e84f3dd0314c0f7b2291e5b200ac8c7c3b925",
            "0x000000000000000000000000dc8530184b633dca44a0e8c48c394fb670ac921f",
            "0x0000000000000000000000002a9c5afb0d0e4bab2bcdae109ec4b0c4be15a165"
          ],
          "data": "0x000000000000000000000000000000000000000000000000035b3dda147e4cae",
          "blockHash": "0xfa87ca40b305b3f6db35212358ed85549bd6c8ec676666b5912533ddb64d0667",
          "blockNumber": "0x10fda69c",
          "blockTimestamp": "0x6a4d02f2",
          "transactionHash": "0x59eec1933d843d77e526291cb55739ca1aa2cfebd1ff49d8e6775b397e441f83",
          "transactionIndex": "0x1",
          "logIndex": "0x0",
          "removed": false
        },
        {
          "address": "0xb1d4538b4571d411f07960ef2838ce337fe1e80e",
          "topics": [
            "0xddf252ad1be2c89b69c2b068fc378daa952ba7f163c4a11628f55a4df523b3ef",
            "0x000000000000000000000000dc8530184b633dca44a0e8c48c394fb670ac921f",
            "0x00000000000000000000000028a025d34c830bf212f5d2357c8dcab32dd92a20"
          ],
          "data": "0x000000000000000000000000000000000000000000000000035b3dda147e4cae",
          "blockHash": "0xfa87ca40b305b3f6db35212358ed85549bd6c8ec676666b5912533ddb64d0667",
          "blockNumber": "0x10fda69c",
          "blockTimestamp": "0x6a4d02f2",
          "transactionHash": "0x59eec1933d843d77e526291cb55739ca1aa2cfebd1ff49d8e6775b397e441f83",
          "transactionIndex": "0x1",
          "logIndex": "0x1",
          "removed": false
        },
        {
          "address": "0xb1d4538b4571d411f07960ef2838ce337fe1e80e",
          "topics": [
            "0x8c5be1e5ebec7d5bd14f71427d1e84f3dd0314c0f7b2291e5b200ac8c7c3b925",
            "0x000000000000000000000000dc8530184b633dca44a0e8c48c394fb670ac921f",
            "0x0000000000000000000000002a9c5afb0d0e4bab2bcdae109ec4b0c4be15a165"
          ],
          "data": "0x0000000000000000000000000000000000000000000000000000000000000000",
          "blockHash": "0xfa87ca40b305b3f6db35212358ed85549bd6c8ec676666b5912533ddb64d0667",
          "blockNumber": "0x10fda69c",
          "blockTimestamp": "0x6a4d02f2",
          "transactionHash": "0x59eec1933d843d77e526291cb55739ca1aa2cfebd1ff49d8e6775b397e441f83",
          "transactionIndex": "0x1",
          "logIndex": "0x2",
          "removed": false
        },
        {
          "address": "0x28a025d34c830bf212f5d2357c8dcab32dd92a20",
          "topics": [
            "0x192442a2b2adb6a7948f097023cb6b57d29d3a7a5dd33e6666d33c39cc456f32",
            "0x000000000000000000000000000000000000000000000000de41ba4fc9d91ad9",
            "0x00000000000000000000000000000000000000000000000000000000000006cb"
          ],
          "data": "0x0000000000000000000000000000000000000000000000000000000000000020760fcda38ac717d7a01960cf839bf36ca8a788358f9d45580067a36e90ea982c000000000000000000000000000000000000000000000000304611b6affba76a000000000000000000000000000000000000000000000000de41ba4fc9d91ad900000000000000000000000000000000000000000000000000000000000006cb0000000000000000000000000000000000000000000000000000000000000000000000000000000000000000dc8530184b633dca44a0e8c48c394fb670ac921f00000000000000000000000000000000000000000000000000000000000001a000000000000000000000000000000000000000000000000000000000000002000000000000000000000000000000000000000000000000000000000000000240000000000000000000000000b1d4538b4571d411f07960ef2838ce337fe1e80e000000000000000000000000000000000000000000000000035b3dda147e4cae000000000000000000000000000000000000000000000000035b3dda147e4cae00000000000000000000000000000000000000000000000000000000000002c0000000000000000000000000000000000000000000000000000000000000004000000000000000000000000040b282c45ee5667fb72b4d37a676a0110cee36d50000000000000000000000000000000000000000000000000000000002faf0800000000000000000000000000000000000000000000000000000000000000020000000000000000000000000dc5c24ff3c0b474bb915133d18cb5506d55554b60000000000000000000000000000000000000000000000000000000000000044181dcf1000000000000000000000000000000000000000000000000000000000000493e00000000000000000000000000000000000000000000000000000000000000001000000000000000000000000000000000000000000000000000000000000000000000000000000000000000000000000000000000000000000000000",
          "blockHash": "0xfa87ca40b305b3f6db35212358ed85549bd6c8ec676666b5912533ddb64d0667",
          "blockNumber": "0x10fda69c",
          "blockTimestamp": "0x6a4d02f2",
          "transactionHash": "0x59eec1933d843d77e526291cb55739ca1aa2cfebd1ff49d8e6775b397e441f83",
          "transactionIndex": "0x1",
          "logIndex": "0x3",
          "removed": false
        },
        {
          "address": "0xdc8530184b633dca44a0e8c48c394fb670ac921f",
          "topics": [
            "0xdc4e8f007d4fe85e9bf032fe5b021509c8814e4128112e05270aa7edb5282d2c",
            "0x760fcda38ac717d7a01960cf839bf36ca8a788358f9d45580067a36e90ea982c",
            "0x000000000000000000000000000000000000000000000000de41ba4fc9d91ad9",
            "0x000000000000000000000000dc5c24ff3c0b474bb915133d18cb5506d55554b6"
          ],
          "data": "0x00000000000000000000000040b282c45ee5667fb72b4d37a676a0110cee36d50000000000000000000000000000000000000000000000000000000002faf080000000000000000000000000000000000000000000000000035b3dda147e4cae",
          "blockHash": "0xfa87ca40b305b3f6db35212358ed85549bd6c8ec676666b5912533ddb64d0667",
          "blockNumber": "0x10fda69c",
          "blockTimestamp": "0x6a4d02f2",
          "transactionHash": "0x59eec1933d843d77e526291cb55739ca1aa2cfebd1ff49d8e6775b397e441f83",
          "transactionIndex": "0x1",
          "logIndex": "0x4",
          "removed": false
        }
      ],
      "logsBloom": "0x00000400000000000000010000000000000000000000000000100000000000000000200000004000000000000000000100000000000000000000000000200000000000000000000000100008000000000400000000000200000000000000000000040000008000000000000000010000000000000502000000000010000000000000080000000014000008000000000000010020000002020000000000000000020000000000000000000220000000000000000040000000000000001000000000000002080000600000000000400000000000000000000000008040000008200010000000000000000000000000000000000000000000000000000000000001",
      "transactionHash": "0x59eec1933d843d77e526291cb55739ca1aa2cfebd1ff49d8e6775b397e441f83",
      "transactionIndex": "0x1",
      "blockHash": "0xfa87ca40b305b3f6db35212358ed85549bd6c8ec676666b5912533ddb64d0667",
      "blockNumber": "0x10fda69c",
      "gasUsed": "0x269b2",
      "effectiveGasPrice": "0x1312d00",
      "from": "0x40b282c45ee5667fb72b4d37a676a0110cee36d5",
      "to": "0xdc8530184b633dca44a0e8c48c394fb670ac921f",
      "contractAddress": null
    }
  ],
  "libraries": [],
  "pending": [],
  "returns": {},
  "timestamp": 1783431919323,
  "chain": 421614,
  "commit": "652e23d"
}