{
  "transactions": [
    {
      "hash": "0x0d0e395f6aba2b6e928e7ead416f5c4aa3324b6d0834836dcf759cfcc61e7b86",
      "transactionType": "CREATE",
      "contractName": "RwaVaultKeeper",
      "contractAddress": "0xa260e5614f85573bac7ab83487fa8425db007e25",
      "function": null,
      "arguments": [
        "0x48c78Ffe5A882069FC81Fb866510FAAE625109C4"
      ],
      "transaction": {
        "from": "0x40b282c45ee5667fb72b4d37a676a0110cee36d5",
        "to": null,
        "gas": "0x12b43a",
        "value": "0x0",
        "input": "0x60a060405234801561000f575f80fd5b5060405161111b38038061111b83398101604081905261002e91610066565b6001600160a01b0381166100555760405163d92e233d60e01b815260040160405180910390fd5b6001600160a01b0316608052610093565b5f60208284031215610076575f80fd5b81516001600160a01b038116811461008c575f80fd5b9392505050565b6080516110166101055f395f818160f901528181610140015281816102d2015281816103d0015281816104790152818161062401528181610724015281816107f6015281816108d7015281816109eb01528181610a9701528181610b2c01528181610ba40152610c2401526110165ff3fe608060405234801561000f575f80fd5b5060043610610055575f3560e01c806340691db4146100595780634585e33b1461008357806357f12223146100985780638b68320a146100cd578063fbfa77cf146100f4575b5f80fd5b61006c610067366004610ce0565b610133565b60405161007a929190610db7565b60405180910390f35b610096610091366004610e0d565b610561565b005b6100bf7f1fdc681a13d8c5da54e301c7ce6542dcde4581e4725043fdab2db12ddc57450681565b60405190815260200161007a565b6100bf7fbb58420bb8ce44e11b84e214cc0de10ce5e7c24d0355b2815c3d758b514cae7281565b61011b7f000000000000000000000000000000000000000000000000000000000000000081565b6040516001600160a01b03909116815260200161007a565b5f60606001600160a01b037f00000000000000000000000000000000000000000000000000000000000000001661017060c0860160a08701610e90565b6001600160a01b03161461019557505060408051602081019091525f8082529061055a565b6101a260c0850185610eb2565b90506004146101c257505060408051602081019091525f8082529061055a565b5f6101d060c0860186610eb2565b5f8181106101e0576101e0610ef8565b9050602002013590507fbb58420bb8ce44e11b84e214cc0de10ce5e7c24d0355b2815c3d758b514cae72811415801561023957507f1fdc681a13d8c5da54e301c7ce6542dcde4581e4725043fdab2db12ddc5745068114155b1561025657505060408051602081019091525f808252915061055a565b5f61026460c0870187610eb2565b600181811061027557610275610ef8565b60200291909101359150507fbb58420bb8ce44e11b84e214cc0de10ce5e7c24d0355b2815c3d758b514cae72821480156103a7576040516309b1be5b60e21b81525f600482018190526001600160a01b03848116602484015290917f0000000000000000000000000000000000000000000000000000000000000000909116906326c6f96c90604401602060405180830381865afa158015610319573d5f803e3d5ffd5b505050506040513d601f19601f8201168201806040525081019061033d9190610f0c565b9050805f03610363575f60405180602001604052805f815250955095505050505061055a565b604080516001602082018190526001600160a01b0386169282019290925260608101839052608001604051602081830303815290604052955095505050505061055a565b60405163f5a23d8d60e01b81525f600482018190526001600160a01b03848116602484015290917f00000000000000000000000000000000000000000000000000000000000000009091169063f5a23d8d90604401602060405180830381865afa158015610417573d5f803e3d5ffd5b505050506040513d601f19601f8201168201806040525081019061043b9190610f0c565b9050805f03610461575f60405180602001604052805f815250955095505050505061055a565b6040516303d1689d60e11b8152600481018290525f907f00000000000000000000000000000000000000000000000000000000000000006001600160a01b0316906307a2d13a90602401602060405180830381865afa1580156104c6573d5f803e3d5ffd5b505050506040513d601f19601f820116820180604052508101906104ea9190610f0c565b90506104f4610a93565b811115610519575f60405180602001604052805f81525096509650505050505061055a565b604080515f60208201526001600160a01b03861691810191909152606081018390526001906080016040516020818303038152906040529650965050505050505b9250929050565b5f808061057084860186610f23565b919450925090506001600160a01b038216158061058b575080155b156105f557816001600160a01b03168315155f80516020610fc1833981519152836040516105e691815260406020820181905260139082015272696e76616c696420706572666f726d4461746160681b606082015260800190565b60405180910390a35050505050565b82156107cd576040516309b1be5b60e21b81525f600482018190526001600160a01b03848116602484015290917f0000000000000000000000000000000000000000000000000000000000000000909116906326c6f96c90604401602060405180830381865afa15801561066b573d5f803e3d5ffd5b505050506040513d601f19601f8201168201806040525081019061068f9190610f0c565b9050818110156106fe57826001600160a01b0316600115155f80516020610fc1833981519152846040516106ee91815260406020820181905260119082015270185b1c9958591e48199d5b199a5b1b1959607a1b606082015260800190565b60405180910390a3505050505050565b604051631d1b349b60e21b81526001600160a01b038481166004830152602482018490527f0000000000000000000000000000000000000000000000000000000000000000169063746cd26c906044016020604051808303815f875af115801561076a573d5f803e3d5ffd5b505050506040513d601f19601f8201168201806040525081019061078e9190610f0c565b506040518281526001600160a01b038416906001907fc557203db3de8a436b4a6ac3ecfd5a2f51874b5ef8546b1563ee5d94f6052238906020016106ee565b60405163f5a23d8d60e01b81525f600482018190526001600160a01b03848116602484015290917f00000000000000000000000000000000000000000000000000000000000000009091169063f5a23d8d90604401602060405180830381865afa15801561083d573d5f803e3d5ffd5b505050506040513d601f19601f820116820180604052508101906108619190610f0c565b9050818110156108bf57826001600160a01b03165f15155f80516020610fc1833981519152846040516106ee91815260406020820181905260119082015270185b1c9958591e48199d5b199a5b1b1959607a1b606082015260800190565b6040516303d1689d60e11b8152600481018390525f907f00000000000000000000000000000000000000000000000000000000000000006001600160a01b0316906307a2d13a90602401602060405180830381865afa158015610924573d5f803e3d5ffd5b505050506040513d601f19601f820116820180604052508101906109489190610f0c565b90505f610953610a93565b9050808211156109c557846001600160a01b03165f15155f80516020610fc1833981519152866040516109b39181526040602082018190526013908201527234b739bab33334b1b4b2b73a10313ab33332b960691b606082015260800190565b60405180910390a35050505050505050565b6040516336ac15ef60e01b81526001600160a01b038681166004830152602482018690527f000000000000000000000000000000000000000000000000000000000000000016906336ac15ef906044016020604051808303815f875af1158015610a31573d5f803e3d5ffd5b505050506040513d601f19601f82011682018060405250810190610a559190610f0c565b506040518481526001600160a01b038616905f907fc557203db3de8a436b4a6ac3ecfd5a2f51874b5ef8546b1563ee5d94f6052238906020016109b3565b5f807f00000000000000000000000000000000000000000000000000000000000000006001600160a01b03166338d52e0f6040518163ffffffff1660e01b8152600401602060405180830381865afa158015610af1573d5f803e3d5ffd5b505050506040513d601f19601f82011682018060405250810190610b159190610f65565b6040516370a0823160e01b81526001600160a01b037f00000000000000000000000000000000000000000000000000000000000000008116600483015291909116906370a0823190602401602060405180830381865afa158015610b7b573d5f803e3d5ffd5b505050506040513d601f19601f82011682018060405250810190610b9f9190610f0c565b90505f7f00000000000000000000000000000000000000000000000000000000000000006001600160a01b031663892b37f56040518163ffffffff1660e01b8152600401602060405180830381865afa158015610bfe573d5f803e3d5ffd5b505050506040513d601f19601f82011682018060405250810190610c229190610f0c565b7f00000000000000000000000000000000000000000000000000000000000000006001600160a01b0316634aa0bdc56040518163ffffffff1660e01b8152600401602060405180830381865afa158015610c7e573d5f803e3d5ffd5b505050506040513d601f19601f82011682018060405250810190610ca29190610f0c565b610cac9190610f94565b9050808211610cbb575f610cc5565b610cc58183610fad565b9250505090565b634e487b7160e01b5f52604160045260245ffd5b5f8060408385031215610cf1575f80fd5b823567ffffffffffffffff80821115610d08575f80fd5b908401906101008287031215610d1c575f80fd5b90925060208401359080821115610d31575f80fd5b818501915085601f830112610d44575f80fd5b813581811115610d5657610d56610ccc565b604051601f8201601f19908116603f01168101908382118183101715610d7e57610d7e610ccc565b81604052828152886020848701011115610d96575f80fd5b826020860160208301375f6020848301015280955050505050509250929050565b82151581525f60206040602084015283518060408501525f5b81811015610dec57858101830151858201606001528201610dd0565b505f606082860101526060601f19601f830116850101925050509392505050565b5f8060208385031215610e1e575f80fd5b823567ffffffffffffffff80821115610e35575f80fd5b818501915085601f830112610e48575f80fd5b813581811115610e56575f80fd5b866020828501011115610e67575f80fd5b60209290920196919550909350505050565b6001600160a01b0381168114610e8d575f80fd5b50565b5f60208284031215610ea0575f80fd5b8135610eab81610e79565b9392505050565b5f808335601e19843603018112610ec7575f80fd5b83018035915067ffffffffffffffff821115610ee1575f80fd5b6020019150600581901b360382131561055a575f80fd5b634e487b7160e01b5f52603260045260245ffd5b5f60208284031215610f1c575f80fd5b5051919050565b5f805f60608486031215610f35575f80fd5b83358015158114610f44575f80fd5b92506020840135610f5481610e79565b929592945050506040919091013590565b5f60208284031215610f75575f80fd5b8151610eab81610e79565b634e487b7160e01b5f52601160045260245ffd5b80820180821115610fa757610fa7610f80565b92915050565b81810381811115610fa757610fa7610f8056fe0558f5fe633988d0474e5be3beddc8caada21eac106e9142f8aed98083cdbaaea2646970667358221220de049cae2592ed2288b0c74c47a09ab21caa44b6970cc2b4e637caa35873fb9f64736f6c6343000818003300000000000000000000000048c78ffe5a882069fc81fb866510faae625109c4",
        "nonce": "0x2f",
        "chainId": "0xaa36a7"
      },
      "additionalContracts": [],
      "isFixedGasLimit": false
    },
    {
      "hash": "0x44f1acbb7786fac955991abb6f64e52d386dbcd8ca661eb627c3cc17bc26cf95",
      "transactionType": "CALL",
      "contractName": null,
      "contractAddress": "0x779877a7b0d9e8603169ddbd7836e478b4624789",
      "function": "approve(address,uint256)",
      "arguments": [
        "0xb0E49c5D0d05cbc241d68c05BC5BA1d1B7B72976",
        "10000000000000000000"
      ],
      "transaction": {
        "from": "0x40b282c45ee5667fb72b4d37a676a0110cee36d5",
        "to": "0x779877a7b0d9e8603169ddbd7836e478b4624789",
        "gas": "0xf961",
        "value": "0x0",
        "input": "0x095ea7b3000000000000000000000000b0e49c5d0d05cbc241d68c05bc5ba1d1b7b729760000000000000000000000000000000000000000000000008ac7230489e80000",
        "nonce": "0x30",
        "chainId": "0xaa36a7"
      },
      "additionalContracts": [],
      "isFixedGasLimit": false
    },
    {
      "hash": "0x4857b098c039cc6e455c8c2b953c54b57c70ad472c4ecffd01bab9e6b6b03bda",
      "transactionType": "CALL",
      "contractName": null,
      "contractAddress": "0xb0e49c5d0d05cbc241d68c05bc5ba1d1b7b72976",
      "function": "registerUpkeep((string,bytes,address,uint32,address,uint8,bytes,bytes,bytes,uint96))",
      "arguments": [
        "(RwaVaultKeeper - DepositRequest, 0x, 0xA260e5614f85573baC7Ab83487Fa8425db007E25, 500000, 0x40b282c45EE5667fB72b4D37a676A0110cEe36d5, 1, 0x, 0x00000000000000000000000048c78ffe5a882069fc81fb866510faae625109c40000000000000000000000000000000000000000000000000000000000000000bb58420bb8ce44e11b84e214cc0de10ce5e7c24d0355b2815c3d758b514cae72000000000000000000000000000000000000000000000000000000000000000000000000000000000000000000000000000000000000000000000000000000000000000000000000000000000000000000000000000000000000000000000000, 0x, 5000000000000000000)"
      ],
      "transaction": {
        "from": "0x40b282c45ee5667fb72b4d37a676a0110cee36d5",
        "to": "0xb0e49c5d0d05cbc241d68c05bc5ba1d1b7b72976",
        "gas": "0xb3bf9",
        "value": "0x0",
        "input": "0x3f678e11000000000000000000000000000000000000000000000000000000000000002000000000000000000000000000000000000000000000000000000000000001400000000000000000000000000000000000000000000000000000000000000180000000000000000000000000a260e5614f85573bac7ab83487fa8425db007e25000000000000000000000000000000000000000000000000000000000007a12000000000000000000000000040b282c45ee5667fb72b4d37a676a0110cee36d5000000000000000000000000000000000000000000000000000000000000000100000000000000000000000000000000000000000000000000000000000001a000000000000000000000000000000000000000000000000000000000000001c000000000000000000000000000000000000000000000000000000000000002a00000000000000000000000000000000000000000000000004563918244f40000000000000000000000000000000000000000000000000000000000000000001f5277615661756c744b6565706572202d204465706f73697452657175657374000000000000000000000000000000000000000000000000000000000000000000000000000000000000000000000000000000000000000000000000000000000000000000000000000000000000000000000000000000000000000000000000c000000000000000000000000048c78ffe5a882069fc81fb866510faae625109c40000000000000000000000000000000000000000000000000000000000000000bb58420bb8ce44e11b84e214cc0de10ce5e7c24d0355b2815c3d758b514cae720000000000000000000000000000000000000000000000000000000000000000000000000000000000000000000000000000000000000000000000000000000000000000000000000000000000000000000000000000000000000000000000000000000000000000000000000000000000000000000000000000000000000000",
        "nonce": "0x31",
        "chainId": "0xaa36a7"
      },
      "additionalContracts": [
        {
          "transactionType": "CREATE",
          "contractName": null,
          "address": "0x2b546f152d2f04fab4001624b12e5e13e440819e",
          "initCode": "0x60c060405234801561001057600080fd5b506040516103ca3803806103ca83398101604081905261002f91610076565b600080546001600160a01b0319166001600160a01b039384161790559181166080521660a0526100b9565b80516001600160a01b038116811461007157600080fd5b919050565b60008060006060848603121561008b57600080fd5b6100948461005a565b92506100a26020850161005a565b91506100b06040850161005a565b90509250925092565b60805160a0516102e76100e36000396000603801526000818160c4015261011701526102e76000f3fe608060405234801561001057600080fd5b50600436106100365760003560e01c806379188d161461007b578063f00e6a2a146100aa575b7f00000000000000000000000000000000000000000000000000000000000000003660008037600080366000845af43d6000803e808015610076573d6000f35b3d6000fd5b61008e6100893660046101c1565b6100ee565b6040805192151583526020830191909152015b60405180910390f35b60405173ffffffffffffffffffffffffffffffffffffffff7f00000000000000000000000000000000000000000000000000000000000000001681526020016100a1565b60008054819073ffffffffffffffffffffffffffffffffffffffff16331461011557600080fd5b7f00000000000000000000000000000000000000000000000000000000000000005a91505a61138881101561014957600080fd5b61138881039050856040820482031161016157600080fd5b50803b61016d57600080fd5b6000808551602087016000858af192505a610188908361029a565b9150509250929050565b7f4e487b7100000000000000000000000000000000000000000000000000000000600052604160045260246000fd5b600080604083850312156101d457600080fd5b82359150602083013567ffffffffffffffff808211156101f357600080fd5b818501915085601f83011261020757600080fd5b81358181111561021957610219610192565b604051601f82017fffffffffffffffffffffffffffffffffffffffffffffffffffffffffffffffe0908116603f0116810190838211818310171561025f5761025f610192565b8160405282815288602084870101111561027857600080fd5b8260208601602083013760006020848301015280955050505050509250929050565b818103818111156102d4577f4e487b7100000000000000000000000000000000000000000000000000000000600052601160045260246000fd5b9291505056fea164736f6c6343000810000a000000000000000000000000a260e5614f85573bac7ab83487fa8425db007e2500000000000000000000000086efbd0b6736bed994962f9797049422a3a8e8ad00000000000000000000000045e65c181e503ed0c116313edcad042928a6d608"
        }
      ],
      "isFixedGasLimit": false
    },
    {
      "hash": "0xf3c4d6b161cd51f0768ea4d91e4e43815ab388cc45031450d740e7dbfbca7b1b",
      "transactionType": "CALL",
      "contractName": null,
      "contractAddress": "0xb0e49c5d0d05cbc241d68c05bc5ba1d1b7b72976",
      "function": "registerUpkeep((string,bytes,address,uint32,address,uint8,bytes,bytes,bytes,uint96))",
      "arguments": [
        "(RwaVaultKeeper - RedeemRequest, 0x, 0xA260e5614f85573baC7Ab83487Fa8425db007E25, 500000, 0x40b282c45EE5667fB72b4D37a676A0110cEe36d5, 1, 0x, 0x00000000000000000000000048c78ffe5a882069fc81fb866510faae625109c400000000000000000000000000000000000000000000000000000000000000001fdc681a13d8c5da54e301c7ce6542dcde4581e4725043fdab2db12ddc574506000000000000000000000000000000000000000000000000000000000000000000000000000000000000000000000000000000000000000000000000000000000000000000000000000000000000000000000000000000000000000000000000, 0x, 5000000000000000000)"
      ],
      "transaction": {
        "from": "0x40b282c45ee5667fb72b4d37a676a0110cee36d5",
        "to": "0xb0e49c5d0d05cbc241d68c05bc5ba1d1b7b72976",
        "gas": "0xb2202",
        "value": "0x0",
        "input": "0x3f678e11000000000000000000000000000000000000000000000000000000000000002000000000000000000000000000000000000000000000000000000000000001400000000000000000000000000000000000000000000000000000000000000180000000000000000000000000a260e5614f85573bac7ab83487fa8425db007e25000000000000000000000000000000000000000000000000000000000007a12000000000000000000000000040b282c45ee5667fb72b4d37a676a0110cee36d5000000000000000000000000000000000000000000000000000000000000000100000000000000000000000000000000000000000000000000000000000001a000000000000000000000000000000000000000000000000000000000000001c000000000000000000000000000000000000000000000000000000000000002a00000000000000000000000000000000000000000000000004563918244f40000000000000000000000000000000000000000000000000000000000000000001e5277615661756c744b6565706572202d2052656465656d5265717565737400000000000000000000000000000000000000000000000000000000000000000000000000000000000000000000000000000000000000000000000000000000000000000000000000000000000000000000000000000000000000000000000000c000000000000000000000000048c78ffe5a882069fc81fb866510faae625109c400000000000000000000000000000000000000000000000000000000000000001fdc681a13d8c5da54e301c7ce6542dcde4581e4725043fdab2db12ddc5745060000000000000000000000000000000000000000000000000000000000000000000000000000000000000000000000000000000000000000000000000000000000000000000000000000000000000000000000000000000000000000000000000000000000000000000000000000000000000000000000000000000000000000",
        "nonce": "0x32",
        "chainId": "0xaa36a7"
      },
      "additionalContracts": [
        {
          "transactionType": "CREATE",
          "contractName": null,
          "address": "0xf194449af8079ac22e81a533d59b0f1f8a622378",
          "initCode": "0x60c060405234801561001057600080fd5b506040516103ca3803806103ca83398101604081905261002f91610076565b600080546001600160a01b0319166001600160a01b039384161790559181166080521660a0526100b9565b80516001600160a01b038116811461007157600080fd5b919050565b60008060006060848603121561008b57600080fd5b6100948461005a565b92506100a26020850161005a565b91506100b06040850161005a565b90509250925092565b60805160a0516102e76100e36000396000603801526000818160c4015261011701526102e76000f3fe608060405234801561001057600080fd5b50600436106100365760003560e01c806379188d161461007b578063f00e6a2a146100aa575b7f00000000000000000000000000000000000000000000000000000000000000003660008037600080366000845af43d6000803e808015610076573d6000f35b3d6000fd5b61008e6100893660046101c1565b6100ee565b6040805192151583526020830191909152015b60405180910390f35b60405173ffffffffffffffffffffffffffffffffffffffff7f00000000000000000000000000000000000000000000000000000000000000001681526020016100a1565b60008054819073ffffffffffffffffffffffffffffffffffffffff16331461011557600080fd5b7f00000000000000000000000000000000000000000000000000000000000000005a91505a61138881101561014957600080fd5b61138881039050856040820482031161016157600080fd5b50803b61016d57600080fd5b6000808551602087016000858af192505a610188908361029a565b9150509250929050565b7f4e487b7100000000000000000000000000000000000000000000000000000000600052604160045260246000fd5b600080604083850312156101d457600080fd5b82359150602083013567ffffffffffffffff808211156101f357600080fd5b818501915085601f83011261020757600080fd5b81358181111561021957610219610192565b604051601f82017fffffffffffffffffffffffffffffffffffffffffffffffffffffffffffffffe0908116603f0116810190838211818310171561025f5761025f610192565b8160405282815288602084870101111561027857600080fd5b8260208601602083013760006020848301015280955050505050509250929050565b818103818111156102d4577f4e487b7100000000000000000000000000000000000000000000000000000000600052601160045260246000fd5b9291505056fea164736f6c6343000810000a000000000000000000000000a260e5614f85573bac7ab83487fa8425db007e2500000000000000000000000086efbd0b6736bed994962f9797049422a3a8e8ad00000000000000000000000045e65c181e503ed0c116313edcad042928a6d608"
        }
      ],
      "isFixedGasLimit": false
    }
  ],
  "receipts": [
    {
      "type": "0x2",
      "status": "0x1",
      "cumulativeGasUsed": "0x14e987b",
      "logs": [],
      "logsBloom": "0x00000000000000000000000000000000000000000000000000000000000000000000000000000000000000000000000000000000000000000000000000000000000000000000000000000000000000000000000000000000000000000000000000000000000000000000000000000000000000000000000000000000000000000000000000000000000000000000000000000000000000000000000000000000000000000000000000000000000000000000000000000000000000000000000000000000000000000000000000000000000000000000000000000000000000000000000000000000000000000000000000000000000000000000000000000000",
      "transactionHash": "0x44f1acbb7786fac955991abb6f64e52d386dbcd8ca661eb627c3cc17bc26cf95",
      "transactionIndex": "0x6a",
      "blockHash": "0x1e4aaee073012a48f4f8fcacb379bbf244eb15a8402ca3b2a453118f0fb6eb5c",
      "blockNumber": "0xab3ed4",
      "gasUsed": "0xe6341",
      "effectiveGasPrice": "0x41ea7d47",
      "from": "0x40b282c45ee5667fb72b4d37a676a0110cee36d5",
      "to": null,
      "contractAddress": "0xa260e5614f85573bac7ab83487fa8425db007e25"
    },
    {
      "type": "0x2",
      "status": "0x1",
      "cumulativeGasUsed": "0x14f4d08",
      "logs": [
        {
          "address": "0x779877a7b0d9e8603169ddbd7836e478b4624789",
          "topics": [
            "0x8c5be1e5ebec7d5bd14f71427d1e84f3dd0314c0f7b2291e5b200ac8c7c3b925",
            "0x00000000000000000000000040b282c45ee5667fb72b4d37a676a0110cee36d5",
            "0x000000000000000000000000b0e49c5d0d05cbc241d68c05bc5ba1d1b7b72976"
          ],
          "data": "0x0000000000000000000000000000000000000000000000008ac7230489e80000",
          "blockHash": "0x1e4aaee073012a48f4f8fcacb379bbf244eb15a8402ca3b2a453118f0fb6eb5c",
          "blockNumber": "0xab3ed4",
          "blockTimestamp": "0x6a4d0180",
          "transactionHash": "0x0d0e395f6aba2b6e928e7ead416f5c4aa3324b6d0834836dcf759cfcc61e7b86",
          "transactionIndex": "0x6b",
          "logIndex": "0x378",
          "removed": false
        }
      ],
      "logsBloom": "0x00000004000000000080000000000010000000000000000000000000000000000000000000000000000000000000000000000000000000000000000000200000000000000000000000000000000000000000000000001000000000000000000000000000000000000000000000000000000000000000000000400000000040000000000000000000000000000000800000000000000000000000000000000000020000000000000000000000000000000000000000000000000000000000000000000000000000000000000000000000000000000000008100000000000000000010000000000000000000000000000000000000000000000000000000000000",
      "transactionHash": "0x0d0e395f6aba2b6e928e7ead416f5c4aa3324b6d0834836dcf759cfcc61e7b86",
      "transactionIndex": "0x6b",
      "blockHash": "0x1e4aaee073012a48f4f8fcacb379bbf244eb15a8402ca3b2a453118f0fb6eb5c",
      "blockNumber": "0xab3ed4",
      "gasUsed": "0xb48d",
      "effectiveGasPrice": "0x41ea7d47",
      "from": "0x40b282c45ee5667fb72b4d37a676a0110cee36d5",
      "to": "0x779877a7b0d9e8603169ddbd7836e478b4624789",
      "contractAddress": null
    },
    {
      "type": "0x2",
      "status": "0x1",
      "cumulativeGasUsed": "0x1576f30",
      "logs": [
        {
          "address": "0x779877a7b0d9e8603169ddbd7836e478b4624789",
          "topics": [
            "0xddf252ad1be2c89b69c2b068fc378daa952ba7f163c4a11628f55a4df523b3ef",
            "0x00000000000000000000000040b282c45ee5667fb72b4d37a676a0110cee36d5",
            "0x000000000000000000000000b0e49c5d0d05cbc241d68c05bc5ba1d1b7b72976"
          ],
          "data": "0x0000000000000000000000000000000000000000000000004563918244f40000",
          "blockHash": "0x1e4aaee073012a48f4f8fcacb379bbf244eb15a8402ca3b2a453118f0fb6eb5c",
          "blockNumber": "0xab3ed4",
          "blockTimestamp": "0x6a4d0180",
          "transactionHash": "0x4857b098c039cc6e455c8c2b953c54b57c70ad472c4ecffd01bab9e6b6b03bda",
          "transactionIndex": "0x6c",
          "logIndex": "0x379",
          "removed": false
        },
        {
          "address": "0x779877a7b0d9e8603169ddbd7836e478b4624789",
          "topics": [
            "0x8c5be1e5ebec7d5bd14f71427d1e84f3dd0314c0f7b2291e5b200ac8c7c3b925",
            "0x00000000000000000000000040b282c45ee5667fb72b4d37a676a0110cee36d5",
            "0x000000000000000000000000b0e49c5d0d05cbc241d68c05bc5ba1d1b7b72976"
          ],
          "data": "0x0000000000000000000000000000000000000000000000004563918244f40000",
          "blockHash": "0x1e4aaee073012a48f4f8fcacb379bbf244eb15a8402ca3b2a453118f0fb6eb5c",
          "blockNumber": "0xab3ed4",
          "blockTimestamp": "0x6a4d0180",
          "transactionHash": "0x4857b098c039cc6e455c8c2b953c54b57c70ad472c4ecffd01bab9e6b6b03bda",
          "transactionIndex": "0x6c",
          "logIndex": "0x37a",
          "removed": false
        },
        {
          "address": "0xb0e49c5d0d05cbc241d68c05bc5ba1d1b7b72976",
          "topics": [
            "0x7684390ebb103102f7f48c71439c2408713f8d437782a6fab2756acc0e42c1b7",
            "0x9cb6036dce47f0562cc34378f1bb9b0adba6b4c4e96dfdbfa3b7a2f63c4b2d37",
            "0x000000000000000000000000a260e5614f85573bac7ab83487fa8425db007e25"
          ],
          "data": "0x00000000000000000000000000000000000000000000000000000000000001200000000000000000000000000000000000000000000000000000000000000160000000000000000000000000000000000000000000000000000000000007a12000000000000000000000000040b282c45ee5667fb72b4d37a676a0110cee36d500000000000000000000000000000000000000000000000000000000000000010000000000000000000000000000000000000000000000000000000000000180000000000000000000000000000000000000000000000000000000000000026000000000000000000000000000000000000000000000000000000000000002800000000000000000000000000000000000000000000000004563918244f40000000000000000000000000000000000000000000000000000000000000000001f5277615661756c744b6565706572202d204465706f7369745265717565737400000000000000000000000000000000000000000000000000000000000000000000000000000000000000000000000000000000000000000000000000000000c000000000000000000000000048c78ffe5a882069fc81fb866510faae625109c40000000000000000000000000000000000000000000000000000000000000000bb58420bb8ce44e11b84e214cc0de10ce5e7c24d0355b2815c3d758b514cae7200000000000000000000000000000000000000000000000000000000000000000000000000000000000000000000000000000000000000000000000000000000000000000000000000000000000000000000000000000000000000000000000000000000000000000000000000000000000000000000000000000000000000000000000000000000000000000000000000000000000000000000000000000000",
          "blockHash": "0x1e4aaee073012a48f4f8fcacb379bbf244eb15a8402ca3b2a453118f0fb6eb5c",
          "blockNumber": "0xab3ed4",
          "blockTimestamp": "0x6a4d0180",
          "transactionHash": "0x4857b098c039cc6e455c8c2b953c54b57c70ad472c4ecffd01bab9e6b6b03bda",
          "transactionIndex": "0x6c",
          "logIndex": "0x37b",
          "removed": false
        },
        {
          "address": "0x86efbd0b6736bed994962f9797049422a3a8e8ad",
          "topics": [
            "0xbae366358c023f887e791d7a62f2e4316f1026bd77f6fb49501a917b3bc5d012",
            "0x6302b258000000000000000000000001043f0bab26771b19cd49920321a75b79"
          ],
          "data": "0x000000000000000000000000000000000000000000000000000000000007a12000000000000000000000000040b282c45ee5667fb72b4d37a676a0110cee36d5",
          "blockHash": "0x1e4aaee073012a48f4f8fcacb379bbf244eb15a8402ca3b2a453118f0fb6eb5c",
          "blockNumber": "0xab3ed4",
          "blockTimestamp": "0x6a4d0180",
          "transactionHash": "0x4857b098c039cc6e455c8c2b953c54b57c70ad472c4ecffd01bab9e6b6b03bda",
          "transactionIndex": "0x6c",
          "logIndex": "0x37c",
          "removed": false
        },
        {
          "address": "0x86efbd0b6736bed994962f9797049422a3a8e8ad",
          "topics": [
            "0xcba2d5723b2ee59e53a8e8a82a4a7caf4fdfe70e9f7c582950bf7e7a5c24e83d",
            "0x6302b258000000000000000000000001043f0bab26771b19cd49920321a75b79"
          ],
          "data": "0x00000000000000000000000000000000000000000000000000000000000000200000000000000000000000000000000000000000000000000000000000000000",
          "blockHash": "0x1e4aaee073012a48f4f8fcacb379bbf244eb15a8402ca3b2a453118f0fb6eb5c",
          "blockNumber": "0xab3ed4",
          "blockTimestamp": "0x6a4d0180",
          "transactionHash": "0x4857b098c039cc6e455c8c2b953c54b57c70ad472c4ecffd01bab9e6b6b03bda",
          "transactionIndex": "0x6c",
          "logIndex": "0x37d",
          "removed": false
        },
        {
          "address": "0x86efbd0b6736bed994962f9797049422a3a8e8ad",
          "topics": [
            "0x2b72ac786c97e68dbab71023ed6f2bdbfc80ad9bb7808941929229d71b7d5664",
            "0x6302b258000000000000000000000001043f0bab26771b19cd49920321a75b79"
          ],
          "data": "0x000000000000000000000000000000000000000000000000000000000000002000000000000000000000000000000000000000000000000000000000000000c000000000000000000000000048c78ffe5a882069fc81fb866510faae625109c40000000000000000000000000000000000000000000000000000000000000000bb58420bb8ce44e11b84e214cc0de10ce5e7c24d0355b2815c3d758b514cae72000000000000000000000000000000000000000000000000000000000000000000000000000000000000000000000000000000000000000000000000000000000000000000000000000000000000000000000000000000000000000000000000",
          "blockHash": "0x1e4aaee073012a48f4f8fcacb379bbf244eb15a8402ca3b2a453118f0fb6eb5c",
          "blockNumber": "0xab3ed4",
          "blockTimestamp": "0x6a4d0180",
          "transactionHash": "0x4857b098c039cc6e455c8c2b953c54b57c70ad472c4ecffd01bab9e6b6b03bda",
          "transactionIndex": "0x6c",
          "logIndex": "0x37e",
          "removed": false
        },
        {
          "address": "0x86efbd0b6736bed994962f9797049422a3a8e8ad",
          "topics": [
            "0x3e8740446213c8a77d40e08f79136ce3f347d13ed270a6ebdf57159e0faf4850",
            "0x6302b258000000000000000000000001043f0bab26771b19cd49920321a75b79"
          ],
          "data": "0x00000000000000000000000000000000000000000000000000000000000000200000000000000000000000000000000000000000000000000000000000000000",
          "blockHash": "0x1e4aaee073012a48f4f8fcacb379bbf244eb15a8402ca3b2a453118f0fb6eb5c",
          "blockNumber": "0xab3ed4",
          "blockTimestamp": "0x6a4d0180",
          "transactionHash": "0x4857b098c039cc6e455c8c2b953c54b57c70ad472c4ecffd01bab9e6b6b03bda",
          "transactionIndex": "0x6c",
          "logIndex": "0x37f",
          "removed": false
        },
        {
          "address": "0x779877a7b0d9e8603169ddbd7836e478b4624789",
          "topics": [
            "0xddf252ad1be2c89b69c2b068fc378daa952ba7f163c4a11628f55a4df523b3ef",
            "0x000000000000000000000000b0e49c5d0d05cbc241d68c05bc5ba1d1b7b72976",
            "0x00000000000000000000000086efbd0b6736bed994962f9797049422a3a8e8ad"
          ],
          "data": "0x0000000000000000000000000000000000000000000000004563918244f40000",
          "blockHash": "0x1e4aaee073012a48f4f8fcacb379bbf244eb15a8402ca3b2a453118f0fb6eb5c",
          "blockNumber": "0xab3ed4",
          "blockTimestamp": "0x6a4d0180",
          "transactionHash": "0x4857b098c039cc6e455c8c2b953c54b57c70ad472c4ecffd01bab9e6b6b03bda",
          "transactionIndex": "0x6c",
          "logIndex": "0x380",
          "removed": false
        },
        {
          "address": "0x779877a7b0d9e8603169ddbd7836e478b4624789",
          "topics": [
            "0xe19260aff97b920c7df27010903aeb9c8d2be5d310a2c67824cf3f15396e4c16",
            "0x000000000000000000000000b0e49c5d0d05cbc241d68c05bc5ba1d1b7b72976",
            "0x00000000000000000000000086efbd0b6736bed994962f9797049422a3a8e8ad"
          ],
          "data": "0x0000000000000000000000000000000000000000000000004563918244f40000000000000000000000000000000000000000000000000000000000000000004000000000000000000000000000000000000000000000000000000000000000206302b258000000000000000000000001043f0bab26771b19cd49920321a75b79",
          "blockHash": "0x1e4aaee073012a48f4f8fcacb379bbf244eb15a8402ca3b2a453118f0fb6eb5c",
          "blockNumber": "0xab3ed4",
          "blockTimestamp": "0x6a4d0180",
          "transactionHash": "0x4857b098c039cc6e455c8c2b953c54b57c70ad472c4ecffd01bab9e6b6b03bda",
          "transactionIndex": "0x6c",
          "logIndex": "0x381",
          "removed": false
        },
        {
          "address": "0x86efbd0b6736bed994962f9797049422a3a8e8ad",
          "topics": [
            "0xafd24114486da8ebfc32f3626dada8863652e187461aa74d4bfa734891506203",
            "0x6302b258000000000000000000000001043f0bab26771b19cd49920321a75b79",
            "0x000000000000000000000000b0e49c5d0d05cbc241d68c05bc5ba1d1b7b72976"
          ],
          "data": "0x0000000000000000000000000000000000000000000000004563918244f40000",
          "blockHash": "0x1e4aaee073012a48f4f8fcacb379bbf244eb15a8402ca3b2a453118f0fb6eb5c",
          "blockNumber": "0xab3ed4",
          "blockTimestamp": "0x6a4d0180",
          "transactionHash": "0x4857b098c039cc6e455c8c2b953c54b57c70ad472c4ecffd01bab9e6b6b03bda",
          "transactionIndex": "0x6c",
          "logIndex": "0x382",
          "removed": false
        },
        {
          "address": "0xb0e49c5d0d05cbc241d68c05bc5ba1d1b7b72976",
          "topics": [
            "0xb9a292fb7e3edd920cd2d2829a3615a640c43fd7de0a0820aa0668feb4c37d4b",
            "0x9cb6036dce47f0562cc34378f1bb9b0adba6b4c4e96dfdbfa3b7a2f63c4b2d37",
            "0x6302b258000000000000000000000001043f0bab26771b19cd49920321a75b79"
          ],
          "data": "0x0000000000000000000000000000000000000000000000000000000000000020000000000000000000000000000000000000000000000000000000000000001f5277615661756c744b6565706572202d204465706f7369745265717565737400",
          "blockHash": "0x1e4aaee073012a48f4f8fcacb379bbf244eb15a8402ca3b2a453118f0fb6eb5c",
          "blockNumber": "0xab3ed4",
          "blockTimestamp": "0x6a4d0180",
          "transactionHash": "0x4857b098c039cc6e455c8c2b953c54b57c70ad472c4ecffd01bab9e6b6b03bda",
          "transactionIndex": "0x6c",
          "logIndex": "0x383",
          "removed": false
        }
      ],
      "logsBloom": "0x00000004800000000080000800000010000000000000000002000000020000000000000000000000100000000000000000000000000000000000000000200004000000004000000001400008000000100000000000001000020020000000000000240000000400000000000001020000000000000000000001500012000040000000000000000100000000000000800000000120240000000100000000000000020000000000000c00000000000000000000000000000020000000210000000000000002000000000000000000000000100000000000008100000000800000000010000000000000004010200000002001400000000000000000101000000000",
      "transactionHash": "0x4857b098c039cc6e455c8c2b953c54b57c70ad472c4ecffd01bab9e6b6b03bda",
      "transactionIndex": "0x6c",
      "blockHash": "0x1e4aaee073012a48f4f8fcacb379bbf244eb15a8402ca3b2a453118f0fb6eb5c",
      "blockNumber": "0xab3ed4",
      "gasUsed": "0x82228",
      "effectiveGasPrice": "0x41ea7d47",
      "from": "0x40b282c45ee5667fb72b4d37a676a0110cee36d5",
      "to": "0xb0e49c5d0d05cbc241d68c05bc5ba1d1b7b72976",
      "contractAddress": null
    },
    {
      "type": "0x2",
      "status": "0x1",
      "cumulativeGasUsed": "0x15f7e8c",
      "logs": [
        {
          "address": "0x779877a7b0d9e8603169ddbd7836e478b4624789",
          "topics": [
            "0xddf252ad1be2c89b69c2b068fc378daa952ba7f163c4a11628f55a4df523b3ef",
            "0x00000000000000000000000040b282c45ee5667fb72b4d37a676a0110cee36d5",
            "0x000000000000000000000000b0e49c5d0d05cbc241d68c05bc5ba1d1b7b72976"
          ],
          "data": "0x0000000000000000000000000000000000000000000000004563918244f40000",
          "blockHash": "0x1e4aaee073012a48f4f8fcacb379bbf244eb15a8402ca3b2a453118f0fb6eb5c",
          "blockNumber": "0xab3ed4",
          "blockTimestamp": "0x6a4d0180",
          "transactionHash": "0xf3c4d6b161cd51f0768ea4d91e4e43815ab388cc45031450d740e7dbfbca7b1b",
          "transactionIndex": "0x6d",
          "logIndex": "0x384",
          "removed": false
        },
        {
          "address": "0x779877a7b0d9e8603169ddbd7836e478b4624789",
          "topics": [
            "0x8c5be1e5ebec7d5bd14f71427d1e84f3dd0314c0f7b2291e5b200ac8c7c3b925",
            "0x00000000000000000000000040b282c45ee5667fb72b4d37a676a0110cee36d5",
            "0x000000000000000000000000b0e49c5d0d05cbc241d68c05bc5ba1d1b7b72976"
          ],
          "data": "0x0000000000000000000000000000000000000000000000000000000000000000",
          "blockHash": "0x1e4aaee073012a48f4f8fcacb379bbf244eb15a8402ca3b2a453118f0fb6eb5c",
          "blockNumber": "0xab3ed4",
          "blockTimestamp": "0x6a4d0180",
          "transactionHash": "0xf3c4d6b161cd51f0768ea4d91e4e43815ab388cc45031450d740e7dbfbca7b1b",
          "transactionIndex": "0x6d",
          "logIndex": "0x385",
          "removed": false
        },
        {
          "address": "0xb0e49c5d0d05cbc241d68c05bc5ba1d1b7b72976",
          "topics": [
            "0x7684390ebb103102f7f48c71439c2408713f8d437782a6fab2756acc0e42c1b7",
            "0x5534a8e75506fd38f9b375a4f8563fe723bb26e965605aad320f5d1f152eca92",
            "0x000000000000000000000000a260e5614f85573bac7ab83487fa8425db007e25"
          ],
          "data": "0x00000000000000000000000000000000000000000000000000000000000001200000000000000000000000000000000000000000000000000000000000000160000000000000000000000000000000000000000000000000000000000007a12000000000000000000000000040b282c45ee5667fb72b4d37a676a0110cee36d500000000000000000000000000000000000000000000000000000000000000010000000000000000000000000000000000000000000000000000000000000180000000000000000000000000000000000000000000000000000000000000026000000000000000000000000000000000000000000000000000000000000002800000000000000000000000000000000000000000000000004563918244f40000000000000000000000000000000000000000000000000000000000000000001e5277615661756c744b6565706572202d2052656465656d526571756573740000000000000000000000000000000000000000000000000000000000000000000000000000000000000000000000000000000000000000000000000000000000c000000000000000000000000048c78ffe5a882069fc81fb866510faae625109c400000000000000000000000000000000000000000000000000000000000000001fdc681a13d8c5da54e301c7ce6542dcde4581e4725043fdab2db12ddc57450600000000000000000000000000000000000000000000000000000000000000000000000000000000000000000000000000000000000000000000000000000000000000000000000000000000000000000000000000000000000000000000000000000000000000000000000000000000000000000000000000000000000000000000000000000000000000000000000000000000000000000000000000000000",
          "blockHash": "0x1e4aaee073012a48f4f8fcacb379bbf244eb15a8402ca3b2a453118f0fb6eb5c",
          "blockNumber": "0xab3ed4",
          "blockTimestamp": "0x6a4d0180",
          "transactionHash": "0xf3c4d6b161cd51f0768ea4d91e4e43815ab388cc45031450d740e7dbfbca7b1b",
          "transactionIndex": "0x6d",
          "logIndex": "0x386",
          "removed": false
        },
        {
          "address": "0x86efbd0b6736bed994962f9797049422a3a8e8ad",
          "topics": [
            "0xbae366358c023f887e791d7a62f2e4316f1026bd77f6fb49501a917b3bc5d012",
            "0x44795dfe00000000000000000000000141ea532d0e0bf497102bed1c1437ba50"
          ],
          "data": "0x000000000000000000000000000000000000000000000000000000000007a12000000000000000000000000040b282c45ee5667fb72b4d37a676a0110cee36d5",
          "blockHash": "0x1e4aaee073012a48f4f8fcacb379bbf244eb15a8402ca3b2a453118f0fb6eb5c",
          "blockNumber": "0xab3ed4",
          "blockTimestamp": "0x6a4d0180",
          "transactionHash": "0xf3c4d6b161cd51f0768ea4d91e4e43815ab388cc45031450d740e7dbfbca7b1b",
          "transactionIndex": "0x6d",
          "logIndex": "0x387",
          "removed": false
        },
        {
          "address": "0x86efbd0b6736bed994962f9797049422a3a8e8ad",
          "topics": [
            "0xcba2d5723b2ee59e53a8e8a82a4a7caf4fdfe70e9f7c582950bf7e7a5c24e83d",
            "0x44795dfe00000000000000000000000141ea532d0e0bf497102bed1c1437ba50"
          ],
          "data": "0x00000000000000000000000000000000000000000000000000000000000000200000000000000000000000000000000000000000000000000000000000000000",
          "blockHash": "0x1e4aaee073012a48f4f8fcacb379bbf244eb15a8402ca3b2a453118f0fb6eb5c",
          "blockNumber": "0xab3ed4",
          "blockTimestamp": "0x6a4d0180",
          "transactionHash": "0xf3c4d6b161cd51f0768ea4d91e4e43815ab388cc45031450d740e7dbfbca7b1b",
          "transactionIndex": "0x6d",
          "logIndex": "0x388",
          "removed": false
        },
        {
          "address": "0x86efbd0b6736bed994962f9797049422a3a8e8ad",
          "topics": [
            "0x2b72ac786c97e68dbab71023ed6f2bdbfc80ad9bb7808941929229d71b7d5664",
            "0x44795dfe00000000000000000000000141ea532d0e0bf497102bed1c1437ba50"
          ],
          "data": "0x000000000000000000000000000000000000000000000000000000000000002000000000000000000000000000000000000000000000000000000000000000c000000000000000000000000048c78ffe5a882069fc81fb866510faae625109c400000000000000000000000000000000000000000000000000000000000000001fdc681a13d8c5da54e301c7ce6542dcde4581e4725043fdab2db12ddc574506000000000000000000000000000000000000000000000000000000000000000000000000000000000000000000000000000000000000000000000000000000000000000000000000000000000000000000000000000000000000000000000000",
          "blockHash": "0x1e4aaee073012a48f4f8fcacb379bbf244eb15a8402ca3b2a453118f0fb6eb5c",
          "blockNumber": "0xab3ed4",
          "blockTimestamp": "0x6a4d0180",
          "transactionHash": "0xf3c4d6b161cd51f0768ea4d91e4e43815ab388cc45031450d740e7dbfbca7b1b",
          "transactionIndex": "0x6d",
          "logIndex": "0x389",
          "removed": false
        },
        {
          "address": "0x86efbd0b6736bed994962f9797049422a3a8e8ad",
          "topics": [
            "0x3e8740446213c8a77d40e08f79136ce3f347d13ed270a6ebdf57159e0faf4850",
            "0x44795dfe00000000000000000000000141ea532d0e0bf497102bed1c1437ba50"
          ],
          "data": "0x00000000000000000000000000000000000000000000000000000000000000200000000000000000000000000000000000000000000000000000000000000000",
          "blockHash": "0x1e4aaee073012a48f4f8fcacb379bbf244eb15a8402ca3b2a453118f0fb6eb5c",
          "blockNumber": "0xab3ed4",
          "blockTimestamp": "0x6a4d0180",
          "transactionHash": "0xf3c4d6b161cd51f0768ea4d91e4e43815ab388cc45031450d740e7dbfbca7b1b",
          "transactionIndex": "0x6d",
          "logIndex": "0x38a",
          "removed": false
        },
        {
          "address": "0x779877a7b0d9e8603169ddbd7836e478b4624789",
          "topics": [
            "0xddf252ad1be2c89b69c2b068fc378daa952ba7f163c4a11628f55a4df523b3ef",
            "0x000000000000000000000000b0e49c5d0d05cbc241d68c05bc5ba1d1b7b72976",
            "0x00000000000000000000000086efbd0b6736bed994962f9797049422a3a8e8ad"
          ],
          "data": "0x0000000000000000000000000000000000000000000000004563918244f40000",
          "blockHash": "0x1e4aaee073012a48f4f8fcacb379bbf244eb15a8402ca3b2a453118f0fb6eb5c",
          "blockNumber": "0xab3ed4",
          "blockTimestamp": "0x6a4d0180",
          "transactionHash": "0xf3c4d6b161cd51f0768ea4d91e4e43815ab388cc45031450d740e7dbfbca7b1b",
          "transactionIndex": "0x6d",
          "logIndex": "0x38b",
          "removed": false
        },
        {
          "address": "0x779877a7b0d9e8603169ddbd7836e478b4624789",
          "topics": [
            "0xe19260aff97b920c7df27010903aeb9c8d2be5d310a2c67824cf3f15396e4c16",
            "0x000000000000000000000000b0e49c5d0d05cbc241d68c05bc5ba1d1b7b72976",
            "0x00000000000000000000000086efbd0b6736bed994962f9797049422a3a8e8ad"
          ],
          "data": "0x0000000000000000000000000000000000000000000000004563918244f400000000000000000000000000000000000000000000000000000000000000000040000000000000000000000000000000000000000000000000000000000000002044795dfe00000000000000000000000141ea532d0e0bf497102bed1c1437ba50",
          "blockHash": "0x1e4aaee073012a48f4f8fcacb379bbf244eb15a8402ca3b2a453118f0fb6eb5c",
          "blockNumber": "0xab3ed4",
          "blockTimestamp": "0x6a4d0180",
          "transactionHash": "0xf3c4d6b161cd51f0768ea4d91e4e43815ab388cc45031450d740e7dbfbca7b1b",
          "transactionIndex": "0x6d",
          "logIndex": "0x38c",
          "removed": false
        },
        {
          "address": "0x86efbd0b6736bed994962f9797049422a3a8e8ad",
          "topics": [
            "0xafd24114486da8ebfc32f3626dada8863652e187461aa74d4bfa734891506203",
            "0x44795dfe00000000000000000000000141ea532d0e0bf497102bed1c1437ba50",
            "0x000000000000000000000000b0e49c5d0d05cbc241d68c05bc5ba1d1b7b72976"
          ],
          "data": "0x0000000000000000000000000000000000000000000000004563918244f40000",
          "blockHash": "0x1e4aaee073012a48f4f8fcacb379bbf244eb15a8402ca3b2a453118f0fb6eb5c",
          "blockNumber": "0xab3ed4",
          "blockTimestamp": "0x6a4d0180",
          "transactionHash": "0xf3c4d6b161cd51f0768ea4d91e4e43815ab388cc45031450d740e7dbfbca7b1b",
          "transactionIndex": "0x6d",
          "logIndex": "0x38d",
          "removed": false
        },
        {
          "address": "0xb0e49c5d0d05cbc241d68c05bc5ba1d1b7b72976",
          "topics": [
            "0xb9a292fb7e3edd920cd2d2829a3615a640c43fd7de0a0820aa0668feb4c37d4b",
            "0x5534a8e75506fd38f9b375a4f8563fe723bb26e965605aad320f5d1f152eca92",
            "0x44795dfe00000000000000000000000141ea532d0e0bf497102bed1c1437ba50"
          ],
          "data": "0x0000000000000000000000000000000000000000000000000000000000000020000000000000000000000000000000000000000000000000000000000000001e5277615661756c744b6565706572202d2052656465656d526571756573740000",
          "blockHash": "0x1e4aaee073012a48f4f8fcacb379bbf244eb15a8402ca3b2a453118f0fb6eb5c",
          "blockNumber": "0xab3ed4",
          "blockTimestamp": "0x6a4d0180",
          "transactionHash": "0xf3c4d6b161cd51f0768ea4d91e4e43815ab388cc45031450d740e7dbfbca7b1b",
          "transactionIndex": "0x6d",
          "logIndex": "0x38e",
          "removed": false
        }
      ],
      "logsBloom": "0x00000004800000000080000000000010000000000000000002000000020000000000000000000000000000000000000000002000000000000000000000200004000000004000000001400008000000100000000000001000020020000000000000240000100000040000000001020000000000000000000001500010000040000000000000000100000000000000800000000120240000000100000000000000020000000000000c00000000000000000000000000000020000000210002000000000002000000000000000040000000000000000000008100000000800200000010000000000000000010200000002001400000000000000000101000000000",
      "transactionHash": "0xf3c4d6b161cd51f0768ea4d91e4e43815ab388cc45031450d740e7dbfbca7b1b",
      "transactionIndex": "0x6d",
      "blockHash": "0x1e4aaee073012a48f4f8fcacb379bbf244eb15a8402ca3b2a453118f0fb6eb5c",
      "blockNumber": "0xab3ed4",
      "gasUsed": "0x80f5c",
      "effectiveGasPrice": "0x41ea7d47",
      "from": "0x40b282c45ee5667fb72b4d37a676a0110cee36d5",
      "to": "0xb0e49c5d0d05cbc241d68c05bc5ba1d1b7b72976",
      "contractAddress": null
    }
  ],
  "libraries": [],
  "pending": [],
  "returns": {},
  "timestamp": 1783431549084,
  "chain": 11155111,
  "commit": "652e23d"
}